{
  "_format": "hh-sol-artifact-1",
  "contractName": "TherapyToken",
  "sourceName": "contracts/TherapyToken.sol",
  "abi": [
    {
      "inputs": [],
      "stateMutability": "nonpayable",
      "type": "constructor"
    },
    {
      "anonymous": false,
      "inputs": [
        {
          "indexed": true,
          "internalType": "address",
          "name": "owner",
          "type": "address"
        },
        {
          "indexed": true,
          "internalType": "address",
          "name": "spender",
          "type": "address"
        },
        {
          "indexed": false,
          "internalType": "uint256",
          "name": "value",
          "type": "uint256"
        }
      ],
      "name": "Approval",
      "type": "event"
    },
    {
      "anonymous": false,
      "inputs": [
        {
          "indexed": true,
          "internalType": "address",
          "name": "user",
          "type": "address"
        },
        {
          "indexed": false,
          "internalType": "uint256",
          "name": "amount",
          "type": "uint256"
        }
      ],
      "name": "CommunityContribution",
      "type": "event"
    },
    {
      "anonymous": false,
      "inputs": [
        {
          "indexed": true,
          "internalType": "address",
          "name": "user",
          "type": "address"
        },
        {
          "indexed": false,
          "internalType": "uint256",
          "name": "riskLevel",
          "type": "uint256"
        }
      ],
      "name": "CrisisTriggered",
      "type": "event"
    },
    {
      "anonymous": false,
      "inputs": [
        {
          "indexed": true,
          "internalType": "address",
          "name": "user",
          "type": "address"
        },
        {
          "indexed": false,
          "internalType": "uint256",
          "name": "amount",
          "type": "uint256"
        }
      ],
      "name": "EmergencyFundsAllocated",
      "type": "event"
    },
    {
      "anonymous": false,
      "inputs": [
        {
          "indexed": true,
          "internalType": "address",
          "name": "previousOwner",
          "type": "address"
        },
        {
          "indexed": true,
          "internalType": "address",
          "name": "newOwner",
          "type": "address"
        }
      ],
      "name": "OwnershipTransferred",
      "type": "event"
    },
    {
      "anonymous": false,
      "inputs": [
        {
          "indexed": true,
          "internalType": "address",
          "name": "user",
          "type": "address"
        },
        {
          "indexed": false,
          "internalType": "uint256",
          "name": "newScore",
          "type": "uint256"
        }
      ],
      "name": "ProgressUpdated",
      "type": "event"
    },
    {
      "anonymous": false,
      "inputs": [
        {
          "indexed": true,
          "internalType": "address",
          "name": "user",
          "type": "address"
        },
        {
          "indexed": false,
          "internalType": "uint256",
          "name": "amount",
          "type": "uint256"
        }
      ],
      "name": "RewardsClaimed",
      "type": "event"
    },
    {
      "anonymous": false,
      "inputs": [
        {
          "indexed": true,
          "internalType": "address",
          "name": "user",
          "type": "address"
        },
        {
          "indexed": false,
          "internalType": "uint256",
          "name": "amount",
          "type": "uint256"
        },
        {
          "indexed": false,
          "internalType": "uint256",
          "name": "lockPeriod",
          "type": "uint256"
        }
      ],
      "name": "Staked",
      "type": "event"
    },
    {
      "anonymous": false,
      "inputs": [
        {
          "indexed": true,
          "internalType": "address",
          "name": "from",
          "type": "address"
        },
        {
          "indexed": true,
          "internalType": "address",
          "name": "to",
          "type": "address"
        },
        {
          "indexed": false,
          "internalType": "uint256",
          "name": "value",
          "type": "uint256"
        }
      ],
      "name": "Transfer",
      "type": "event"
    },
    {
      "anonymous": false,
      "inputs": [
        {
          "indexed": true,
          "internalType": "address",
          "name": "user",
          "type": "address"
        },
        {
          "indexed": false,
          "internalType": "uint256",
          "name": "amount",
          "type": "uint256"
        },
        {
          "indexed": false,
          "internalType": "uint256",
          "name": "rewards",
          "type": "uint256"
        }
      ],
      "name": "Unstaked",
      "type": "event"
    },
    {
      "inputs": [],
      "name": "BASE_APY",
      "outputs": [
        {
          "internalType": "uint256",
          "name": "",
          "type": "uint256"
        }
      ],
      "stateMutability": "view",
      "type": "function"
    },
    {
      "inputs": [],
      "name": "CRISIS_FUND_THRESHOLD",
      "outputs": [
        {
          "internalType": "uint256",
          "name": "",
          "type": "uint256"
        }
      ],
      "stateMutability": "view",
      "type": "function"
    },
    {
      "inputs": [],
      "name": "MAX_APY",
      "outputs": [
        {
          "internalType": "uint256",
          "name": "",
          "type": "uint256"
        }
      ],
      "stateMutability": "view",
      "type": "function"
    },
    {
      "inputs": [],
      "name": "MAX_PROGRESS_SCORE",
      "outputs": [
        {
          "internalType": "uint256",
          "name": "",
          "type": "uint256"
        }
      ],
      "stateMutability": "view",
      "type": "function"
    },
    {
      "inputs": [],
      "name": "MAX_RISK_LEVEL",
      "outputs": [
        {
          "internalType": "uint256",
          "name": "",
          "type": "uint256"
        }
      ],
      "stateMutability": "view",
      "type": "function"
    },
    {
      "inputs": [],
      "name": "MIN_STAKE_PERIOD",
      "outputs": [
        {
          "internalType": "uint256",
          "name": "",
          "type": "uint256"
        }
      ],
      "stateMutability": "view",
      "type": "function"
    },
    {
      "inputs": [],
      "name": "REPUTATION_MULTIPLIER",
      "outputs": [
        {
          "internalType": "uint256",
          "name": "",
          "type": "uint256"
        }
      ],
      "stateMutability": "view",
      "type": "function"
    },
    {
      "inputs": [
        {
          "internalType": "address",
          "name": "owner",
          "type": "address"
        },
        {
          "internalType": "address",
          "name": "spender",
          "type": "address"
        }
      ],
      "name": "allowance",
      "outputs": [
        {
          "internalType": "uint256",
          "name": "",
          "type": "uint256"
        }
      ],
      "stateMutability": "view",
      "type": "function"
    },
    {
      "inputs": [
        {
          "internalType": "address",
          "name": "spender",
          "type": "address"
        },
        {
          "internalType": "uint256",
          "name": "amount",
          "type": "uint256"
        }
      ],
      "name": "approve",
      "outputs": [
        {
          "internalType": "bool",
          "name": "",
          "type": "bool"
        }
      ],
      "stateMutability": "nonpayable",
      "type": "function"
    },
    {
      "inputs": [
        {
          "internalType": "address",
          "name": "account",
          "type": "address"
        }
      ],
      "name": "balanceOf",
      "outputs": [
        {
          "internalType": "uint256",
          "name": "",
          "type": "uint256"
        }
      ],
      "stateMutability": "view",
      "type": "function"
    },
    {
      "inputs": [],
      "name": "crisisFundBalance",
      "outputs": [
        {
          "internalType": "uint256",
          "name": "",
          "type": "uint256"
        }
      ],
      "stateMutability": "view",
      "type": "function"
    },
    {
      "inputs": [
        {
          "internalType": "address",
          "name": "",
          "type": "address"
        }
      ],
      "name": "crisisInfo",
      "outputs": [
        {
          "internalType": "bool",
          "name": "isActive",
          "type": "bool"
        },
        {
          "internalType": "uint256",
          "name": "riskLevel",
          "type": "uint256"
        },
        {
          "internalType": "uint256",
          "name": "allocatedFunds",
          "type": "uint256"
        },
        {
          "internalType": "uint256",
          "name": "lastAssessment",
          "type": "uint256"
        },
        {
          "internalType": "uint256",
          "name": "responseTime",
          "type": "uint256"
        }
      ],
      "stateMutability": "view",
      "type": "function"
    },
    {
      "inputs": [],
      "name": "decimals",
      "outputs": [
        {
          "internalType": "uint8",
          "name": "",
          "type": "uint8"
        }
      ],
      "stateMutability": "view",
      "type": "function"
    },
    {
      "inputs": [],
      "name": "name",
      "outputs": [
        {
          "internalType": "string",
          "name": "",
          "type": "string"
        }
      ],
      "stateMutability": "view",
      "type": "function"
    },
    {
      "inputs": [
        {
          "internalType": "address",
          "name": "user",
          "type": "address"
        },
        {
          "internalType": "uint256",
          "name": "contributionValue",
          "type": "uint256"
        }
      ],
      "name": "recordCommunityContribution",
      "outputs": [],
      "stateMutability": "nonpayable",
      "type": "function"
    },
    {
      "inputs": [
        {
          "internalType": "uint256",
          "name": "amount",
          "type": "uint256"
        },
        {
          "internalType": "uint256",
          "name": "lockPeriod",
          "type": "uint256"
        }
      ],
      "name": "stake",
      "outputs": [],
      "stateMutability": "nonpayable",
      "type": "function"
    },
    {
      "inputs": [
        {
          "internalType": "address",
          "name": "",
          "type": "address"
        }
      ],
      "name": "stakingPositions",
      "outputs": [
        {
          "internalType": "uint256",
          "name": "amount",
          "type": "uint256"
        },
        {
          "internalType": "uint256",
          "name": "startTime",
          "type": "uint256"
        },
        {
          "internalType": "uint256",
          "name": "lockPeriod",
          "type": "uint256"
        },
        {
          "internalType": "uint256",
          "name": "lastRewardCalculation",
          "type": "uint256"
        },
        {
          "internalType": "uint256",
          "name": "accumulatedRewards",
          "type": "uint256"
        }
      ],
      "stateMutability": "view",
      "type": "function"
    },
    {
      "inputs": [],
      "name": "symbol",
      "outputs": [
        {
          "internalType": "string",
          "name": "",
          "type": "string"
        }
      ],
      "stateMutability": "view",
      "type": "function"
    },
    {
      "inputs": [],
      "name": "totalStaked",
      "outputs": [
        {
          "internalType": "uint256",
          "name": "",
          "type": "uint256"
        }
      ],
      "stateMutability": "view",
      "type": "function"
    },
    {
      "inputs": [],
      "name": "totalSupply",
      "outputs": [
        {
          "internalType": "uint256",
          "name": "",
          "type": "uint256"
        }
      ],
      "stateMutability": "view",
      "type": "function"
    },
    {
      "inputs": [
        {
          "internalType": "address",
          "name": "to",
          "type": "address"
        },
        {
          "internalType": "uint256",
          "name": "amount",
          "type": "uint256"
        }
      ],
      "name": "transfer",
      "outputs": [
        {
          "internalType": "bool",
          "name": "",
          "type": "bool"
        }
      ],
      "stateMutability": "nonpayable",
      "type": "function"
    },
    {
      "inputs": [
        {
          "internalType": "address",
          "name": "from",
          "type": "address"
        },
        {
          "internalType": "address",
          "name": "to",
          "type": "address"
        },
        {
          "internalType": "uint256",
          "name": "amount",
          "type": "uint256"
        }
      ],
      "name": "transferFrom",
      "outputs": [
        {
          "internalType": "bool",
          "name": "",
          "type": "bool"
        }
      ],
      "stateMutability": "nonpayable",
      "type": "function"
    },
    {
      "inputs": [
        {
          "internalType": "address",
          "name": "user",
          "type": "address"
        },
        {
          "internalType": "uint256",
          "name": "riskLevel",
          "type": "uint256"
        }
      ],
      "name": "triggerCrisis",
      "outputs": [],
      "stateMutability": "nonpayable",
      "type": "function"
    },
    {
      "inputs": [],
      "name": "unstake",
      "outputs": [],
      "stateMutability": "nonpayable",
      "type": "function"
    },
    {
      "inputs": [
        {
          "internalType": "address",
          "name": "user",
          "type": "address"
        },
        {
          "internalType": "uint256",
          "name": "progressScore",
          "type": "uint256"
        }
      ],
      "name": "updateProgress",
      "outputs": [],
      "stateMutability": "nonpayable",
      "type": "function"
    },
    {
      "inputs": [
        {
          "internalType": "address",
          "name": "",
          "type": "address"
        }
      ],
      "name": "userMetrics",
      "outputs": [
        {
          "internalType": "uint256",
          "name": "sessionCount",
          "type": "uint256"
        },
        {
          "internalType": "uint256",
          "name": "progressScore",
          "type": "uint256"
        },
        {
          "internalType": "uint256",
          "name": "communityContributions",
          "type": "uint256"
        },
        {
          "internalType": "uint256",
          "name": "reputationScore",
          "type": "uint256"
        },
        {
          "internalType": "uint256",
          "name": "lastActivityTimestamp",
          "type": "uint256"
        }
      ],
      "stateMutability": "view",
      "type": "function"
    }
  ],
  "bytecode": "0x608060405234801561001057600080fd5b50600380546001600160a01b0319163390811790915561003a9069d3c21bcecceda100000061003f565b610137565b6001600160a01b0382166100885760405162461bcd60e51b815260206004820152600c60248201526b4d696e7420746f207a65726f60a01b604482015260640160405180910390fd5b806000808282546100999190610110565b90915550506001600160a01b038216600090815260016020526040812080548392906100c6908490610110565b90915550506040518181526001600160a01b038316906000907fddf252ad1be2c89b69c2b068fc378daa952ba7f163c4a11628f55a4df523b3ef9060200160405180910390a35050565b8082018082111561013157634e487b7160e01b600052601160045260246000fd5b92915050565b61148c806101466000396000f3fe608060405234801561001057600080fd5b506004361061018e5760003560e01c80638148580d116100de5780639ddd1fdd11610097578063d342f48411610071578063d342f48414610438578063dd62ed3e14610442578063dda0a1f71461047b578063ef849aa11461036657600080fd5b80639ddd1fdd146103ff578063a9059cbb14610412578063c93943661461042557600080fd5b80638148580d1461030f578063817b1cd21461034d5780638292c46a14610356578063846686c01461036657806392979be11461036e57806395d89b41146103d957600080fd5b80632def66201161014b5780634ca19fd6116101255780634ca19fd6146102b75780635f50020f146102c057806370a08231146102d35780637b0472f0146102fc57600080fd5b80632def66201461028a578063313ce567146102945780633d92f4e2146102ae57600080fd5b806304ed2b271461019357806306fdde03146101ae578063095ea7b3146101e757806318160ddd1461020a5780631f227e481461021257806323b872dd14610277575b600080fd5b61019b600a81565b6040519081526020015b60405180910390f35b6101da6040518060400160405280600d81526020016c2a3432b930b83c902a37b5b2b760991b81525081565b6040516101a5919061127d565b6101fa6101f53660046112e7565b610484565b60405190151581526020016101a5565b60005461019b565b61024f610220366004611311565b600560205260009081526040902080546001820154600283015460038401546004909401549293919290919085565b604080519586526020860194909452928401919091526060830152608082015260a0016101a5565b6101fa61028536600461132c565b61049b565b61029261055a565b005b61029c601281565b60405160ff90911681526020016101a5565b61019b6109c481565b61019b6101f481565b6102926102ce3660046112e7565b610714565b61019b6102e1366004611311565b6001600160a01b031660009081526001602052604090205490565b61029261030a366004611369565b61082d565b61024f61031d366004611311565b60046020819052600091825260409091208054600182015460028301546003840154939094015491939092909185565b61019b60075481565b61019b683635c9adc5dea0000081565b61019b606481565b6103af61037c366004611311565b6006602052600090815260409020805460018201546002830154600384015460059094015460ff90931693919290919085565b6040805195151586526020860194909452928401919091526060830152608082015260a0016101a5565b6101da604051806040016040528060078152602001665448455241505960c81b81525081565b61029261040d3660046112e7565b610a28565b6101fa6104203660046112e7565b610b29565b6102926104333660046112e7565b610b36565b61019b62278d0081565b61019b61045036600461138b565b6001600160a01b03918216600090815260026020908152604080832093909416825291909152205490565b61019b60085481565b6000610491338484610cdc565b5060015b92915050565b6001600160a01b038316600090815260026020908152604080832033845290915281205482111561050c5760405162461bcd60e51b8152602060048201526016602482015275496e73756666696369656e7420616c6c6f77616e636560501b60448201526064015b60405180910390fd5b6001600160a01b03841660009081526002602090815260408083203384529091528120805484929061053f9084906113d4565b909155506105509050848484610dd0565b5060019392505050565b600354600160a01b900460ff16156105a55760405162461bcd60e51b815260206004820152600e60248201526d1499595b9d1c985b9d0818d85b1b60921b6044820152606401610503565b6003805460ff60a01b1916600160a01b179055336000908152600460205260409020805461060b5760405162461bcd60e51b815260206004820152601360248201527227379039ba30b5b4b733903837b9b4ba34b7b760691b6044820152606401610503565b8060020154816001015461061f91906113e7565b4210156106665760405162461bcd60e51b8152602060048201526015602482015274131bd8dac81c195c9a5bd9081b9bdd08195b991959605a1b6044820152606401610503565b600061067133610f64565b9050600081836000015461068591906113e7565b8354600080865560048601819055600780549394509192839291906106ab9084906113d4565b909155506106bb90503384610ffd565b6106c6303383610dd0565b604080518281526020810185905233917f7fc4727e062e336010f2c282598ef5f14facb3de68cf8195c2f23e1454b2b74e910160405180910390a250506003805460ff60a01b191690555050565b6003546001600160a01b0316331461073e5760405162461bcd60e51b8152600401610503906113fa565b60648111156107885760405162461bcd60e51b8152602060048201526016602482015275496e76616c69642070726f67726573732073636f726560501b6044820152606401610503565b6001600160a01b038216600090815260056020526040812060018082018490558154919290918391906107bc9084906113e7565b909155505042600482015560006107d2836110ca565b905080156107e4576107e48482610ffd565b836001600160a01b03167fb18ace651b0b213a6f131cfe3efe43ce84d2c0148ccea4ec0ce357c03fe2f7068460405161081f91815260200190565b60405180910390a250505050565b600354600160a01b900460ff16156108785760405162461bcd60e51b815260206004820152600e60248201526d1499595b9d1c985b9d0818d85b1b60921b6044820152606401610503565b6003805460ff60a01b1916600160a01b179055816108c95760405162461bcd60e51b815260206004820152600e60248201526d043616e6e6f74207374616b6520360941b6044820152606401610503565b62278d008110156109145760405162461bcd60e51b8152602060048201526015602482015274131bd8dac81c195c9a5bd9081d1bdbc81cda1bdc9d605a1b6044820152606401610503565b3360009081526001602052604090205482111561096a5760405162461bcd60e51b8152602060048201526014602482015273496e73756666696369656e742062616c616e636560601b6044820152606401610503565b33600090815260046020526040902080541561098957610989336110ea565b610994333085610dd0565b828160000160008282546109a891906113e7565b90915550504260018201819055600282018390556003820155600780548491906000906109d69084906113e7565b9091555050604080518481526020810184905233917f1449c6dd7851abc30abf37f57715f492010519147cc2652fbc38202c18a6ee90910160405180910390a250506003805460ff60a01b1916905550565b6003546001600160a01b03163314610a525760405162461bcd60e51b8152600401610503906113fa565b6001600160a01b038216600090815260056020526040812060028101805491928492610a7f9084906113e7565b90915550506040805160a08101825282548152600183015460208201526002830154918101919091526003820154606082015260048201546080820152610ac590611171565b600382015560006064610ad8818561141d565b610ae29190611434565b9050610aee8482610ffd565b836001600160a01b03167fc6b5c0ec41dd5f951827fd7eda1f8048a56555fa448e91679fddf3db9d5a11958460405161081f91815260200190565b6000610491338484610dd0565b6003546001600160a01b03163314610b605760405162461bcd60e51b8152600401610503906113fa565b600a811115610ba65760405162461bcd60e51b8152602060048201526012602482015271125b9d985b1a59081c9a5cdac81b195d995b60721b6044820152606401610503565b6001600160a01b0382166000908152600660205260409020805460ff1916600190811782558101829055426003820155610bdf826111c9565b60058201556000610bef836111f7565b9050806008541015610c435760405162461bcd60e51b815260206004820152601860248201527f496e73756666696369656e74206372697369732066756e6400000000000000006044820152606401610503565b8082600201819055508060086000828254610c5e91906113d4565b90915550506040518381526001600160a01b038516907f0eecb6e3e9d10175b4cb42633135d7a7bf7212d4972eb45e62bfd4b7a322addd9060200160405180910390a2836001600160a01b03167f9d2a67d9f5170cf8142c1f90230b297056bbf02c8197199802760c72054b31b18260405161081f91815260200190565b6001600160a01b038316610d265760405162461bcd60e51b8152602060048201526011602482015270417070726f76652066726f6d207a65726f60781b6044820152606401610503565b6001600160a01b038216610d6e5760405162461bcd60e51b815260206004820152600f60248201526e417070726f766520746f207a65726f60881b6044820152606401610503565b6001600160a01b0383811660008181526002602090815260408083209487168084529482529182902085905590518481527f8c5be1e5ebec7d5bd14f71427d1e84f3dd0314c0f7b2291e5b200ac8c7c3b92591015b60405180910390a3505050565b6001600160a01b038316610e1b5760405162461bcd60e51b81526020600482015260126024820152715472616e736665722066726f6d207a65726f60701b6044820152606401610503565b6001600160a01b038216610e645760405162461bcd60e51b815260206004820152601060248201526f5472616e7366657220746f207a65726f60801b6044820152606401610503565b6001600160a01b038316600090815260016020526040902054811115610ec35760405162461bcd60e51b8152602060048201526014602482015273496e73756666696369656e742062616c616e636560601b6044820152606401610503565b6001600160a01b03831660009081526001602052604081208054839290610eeb9084906113d4565b90915550506001600160a01b03821660009081526001602052604081208054839290610f189084906113e7565b92505081905550816001600160a01b0316836001600160a01b03167fddf252ad1be2c89b69c2b068fc378daa952ba7f163c4a11628f55a4df523b3ef83604051610dc391815260200190565b6001600160a01b038116600090815260046020526040812080548203610f8d5750600092915050565b6000816003015442610f9f91906113d4565b90506000610fac8561120e565b905082600401546127106301e1338084848760000154610fcc919061141d565b610fd6919061141d565b610fe09190611434565b610fea9190611434565b610ff491906113e7565b95945050505050565b6001600160a01b0382166110425760405162461bcd60e51b815260206004820152600c60248201526b4d696e7420746f207a65726f60a01b6044820152606401610503565b8060008082825461105391906113e7565b90915550506001600160a01b038216600090815260016020526040812080548392906110809084906113e7565b90915550506040518181526001600160a01b038316906000907fddf252ad1be2c89b69c2b068fc378daa952ba7f163c4a11628f55a4df523b3ef9060200160405180910390a35050565b6000600a6110e083670de0b6b3a764000061141d565b6104959190611434565b60006110f582610f64565b9050801561116d576001600160a01b0382166000908152600460208190526040822042600382015501556111298282610ffd565b816001600160a01b03167ffc30cddea38e2bf4d6ea7d3f9ed3b6ad7f176419f4963bd81318067a4aee73fe8260405161116491815260200190565b60405180910390a25b5050565b600080600383600001516005611187919061141d565b8460400151856020015161119b91906113e7565b6111a591906113e7565b6111af9190611434565b9050606481116111bf57806111c2565b60645b9392505050565b6000600882106111dc5750610e10919050565b600582106111ed575061a8c0919050565b5062015180919050565b6000600a6110e083683635c9adc5dea0000061141d565b6001600160a01b038116600090815260056020526040812060018101546101f49060501015611246576112436101f4826113e7565b90505b605a826003015411156112625761125f6101f4826113e7565b90505b6109c481116112715780611275565b6109c45b949350505050565b602081526000825180602084015260005b818110156112ab576020818601810151604086840101520161128e565b506000604082850101526040601f19601f83011684010191505092915050565b80356001600160a01b03811681146112e257600080fd5b919050565b600080604083850312156112fa57600080fd5b611303836112cb565b946020939093013593505050565b60006020828403121561132357600080fd5b6111c2826112cb565b60008060006060848603121561134157600080fd5b61134a846112cb565b9250611358602085016112cb565b929592945050506040919091013590565b6000806040838503121561137c57600080fd5b50508035926020909101359150565b6000806040838503121561139e57600080fd5b6113a7836112cb565b91506113b5602084016112cb565b90509250929050565b634e487b7160e01b600052601160045260246000fd5b81810381811115610495576104956113be565b80820180821115610495576104956113be565b6020808252600990820152682737ba1037bbb732b960b91b604082015260600190565b8082028115828204841417610495576104956113be565b60008261145157634e487b7160e01b600052601260045260246000fd5b50049056fea264697066735822122087cee3bb2af104a2730d741898cded758822609a498881bd924285016bcfba9a64736f6c634300081c0033",
  "linkReferences": {},
  "deployedLinkReferences": {}
}