{
  "_format": "hh-sol-artifact-1",
  "contractName": "TherapyConsent",
  "sourceName": "contracts/TherapyConsent.sol",
  "abi": [
    {
      "anonymous": false,
      "inputs": [
        {
          "indexed": true,
          "internalType": "address",
          "name": "user",
          "type": "address"
        },
        {
          "indexed": false,
          "internalType": "string",
          "name": "consentType",
          "type": "string"
        },
        {
          "indexed": false,
          "internalType": "bool",
          "name": "value",
          "type": "bool"
        }
      ],
      "name": "ConsentUpdated",
      "type": "event"
    },
    {
      "anonymous": false,
      "inputs": [
        {
          "indexed": true,
          "internalType": "address",
          "name": "user",
          "type": "address"
        },
        {
          "indexed": false,
          "internalType": "string",
          "name": "interventionType",
          "type": "string"
        },
        {
          "indexed": false,
          "internalType": "string",
          "name": "outcome",
          "type": "string"
        }
      ],
      "name": "InterventionLogged",
      "type": "event"
    },
    {
      "inputs": [
        {
          "internalType": "address",
          "name": "user",
          "type": "address"
        }
      ],
      "name": "getAuditLogs",
      "outputs": [
        {
          "components": [
            {
              "internalType": "string",
              "name": "interventionType",
              "type": "string"
            },
            {
              "internalType": "uint256",
              "name": "timestamp",
              "type": "uint256"
            },
            {
              "internalType": "string",
              "name": "outcome",
              "type": "string"
            }
          ],
          "internalType": "struct TherapyConsent.AuditLog[]",
          "name": "",
          "type": "tuple[]"
        }
      ],
      "stateMutability": "view",
      "type": "function"
    },
    {
      "inputs": [
        {
          "internalType": "address",
          "name": "user",
          "type": "address"
        }
      ],
      "name": "getConsent",
      "outputs": [
        {
          "components": [
            {
              "internalType": "bool",
              "name": "aiInterventions",
              "type": "bool"
            },
            {
              "internalType": "bool",
              "name": "emergencyContact",
              "type": "bool"
            },
            {
              "internalType": "bool",
              "name": "dataSharing",
              "type": "bool"
            },
            {
              "internalType": "uint256",
              "name": "lastUpdated",
              "type": "uint256"
            }
          ],
          "internalType": "struct TherapyConsent.Consent",
          "name": "",
          "type": "tuple"
        }
      ],
      "stateMutability": "view",
      "type": "function"
    },
    {
      "inputs": [
        {
          "internalType": "address",
          "name": "user",
          "type": "address"
        },
        {
          "internalType": "string",
          "name": "interventionType",
          "type": "string"
        },
        {
          "internalType": "string",
          "name": "outcome",
          "type": "string"
        }
      ],
      "name": "logIntervention",
      "outputs": [],
      "stateMutability": "nonpayable",
      "type": "function"
    },
    {
      "inputs": [
        {
          "internalType": "bool",
          "name": "_aiInterventions",
          "type": "bool"
        },
        {
          "internalType": "bool",
          "name": "_emergencyContact",
          "type": "bool"
        },
        {
          "internalType": "bool",
          "name": "_dataSharing",
          "type": "bool"
        }
      ],
      "name": "updateConsent",
      "outputs": [],
      "stateMutability": "nonpayable",
      "type": "function"
    },
    {
      "inputs": [
        {
          "internalType": "address",
          "name": "",
          "type": "address"
        },
        {
          "internalType": "uint256",
          "name": "",
          "type": "uint256"
        }
      ],
      "name": "userAuditLogs",
      "outputs": [
        {
          "internalType": "string",
          "name": "interventionType",
          "type": "string"
        },
        {
          "internalType": "uint256",
          "name": "timestamp",
          "type": "uint256"
        },
        {
          "internalType": "string",
          "name": "outcome",
          "type": "string"
        }
      ],
      "stateMutability": "view",
      "type": "function"
    },
    {
      "inputs": [
        {
          "internalType": "address",
          "name": "",
          "type": "address"
        }
      ],
      "name": "userConsent",
      "outputs": [
        {
          "internalType": "bool",
          "name": "aiInterventions",
          "type": "bool"
        },
        {
          "internalType": "bool",
          "name": "emergencyContact",
          "type": "bool"
        },
        {
          "internalType": "bool",
          "name": "dataSharing",
          "type": "bool"
        },
        {
          "internalType": "uint256",
          "name": "lastUpdated",
          "type": "uint256"
        }
      ],
      "stateMutability": "view",
      "type": "function"
    }
  ],
  "bytecode": "0x6080604052348015600f57600080fd5b50610c9f8061001f6000396000f3fe608060405234801561001057600080fd5b50600436106100615760003560e01c8062d414881461006657806311437850146100915780638099a688146100a6578063970e4ed2146100c6578063dd63181f1461018e578063fc1f6b25146101f6575b600080fd5b610079610074366004610825565b610209565b60405161008893929190610895565b60405180910390f35b6100a461009f3660046108da565b610360565b005b6100b96100b436600461091d565b6104f5565b604051610088919061093f565b6101556100d436600461091d565b604080516080810182526000808252602082018190529181018290526060810191909152506001600160a01b0316600090815260208181526040918290208251608081018452815460ff8082161515835261010082048116151594830194909452620100009004909216151592820192909252600190910154606082015290565b60405161008891908151151581526020808301511515908201526040808301511515908201526060918201519181019190915260800190565b6101ce61019c36600461091d565b6000602081905290815260409020805460019091015460ff808316926101008104821692620100009091049091169084565b6040805194151585529215156020850152901515918301919091526060820152608001610088565b6100a4610204366004610a7a565b610698565b6001602052816000526040600020818154811061022557600080fd5b90600052602060002090600302016000915091505080600001805461024990610af3565b80601f016020809104026020016040519081016040528092919081815260200182805461027590610af3565b80156102c25780601f10610297576101008083540402835291602001916102c2565b820191906000526020600020905b8154815290600101906020018083116102a557829003601f168201915b5050505050908060010154908060020180546102dd90610af3565b80601f016020809104026020016040519081016040528092919081815260200182805461030990610af3565b80156103565780601f1061032b57610100808354040283529160200191610356565b820191906000526020600020905b81548152906001019060200180831161033957829003601f168201915b5050505050905083565b604080516080808201835285151580835285151560208085019182528615158587019081524260608088019182523360008181528086528a902098518954965194511515620100000262ff0000199515156101000261ff00199215159290921661ffff199098169790971717939093169490941787555160019096019590955585518681526010968101969096526f61695f696e74657276656e74696f6e7360801b9186019190915284015290917f2277ca10ae44dc9207678f11b331f21a419c6b0cc7d0914f2beab9f59b1da564910160405180910390a26040805181815260118183015270195b595c99d95b98de57d8dbdb9d1858dd607a1b60608201528315156020820152905133917f2277ca10ae44dc9207678f11b331f21a419c6b0cc7d0914f2beab9f59b1da564919081900360800190a260408051818152600c818301526b646174615f73686172696e6760a01b60608201528215156020820152905133917f2277ca10ae44dc9207678f11b331f21a419c6b0cc7d0914f2beab9f59b1da564919081900360800190a2505050565b6001600160a01b0381166000908152600160209081526040808320805482518185028101850190935280835260609492939192909184015b8282101561068d578382906000526020600020906003020160405180606001604052908160008201805461056090610af3565b80601f016020809104026020016040519081016040528092919081815260200182805461058c90610af3565b80156105d95780601f106105ae576101008083540402835291602001916105d9565b820191906000526020600020905b8154815290600101906020018083116105bc57829003601f168201915b50505050508152602001600182015481526020016002820180546105fc90610af3565b80601f016020809104026020016040519081016040528092919081815260200182805461062890610af3565b80156106755780601f1061064a57610100808354040283529160200191610675565b820191906000526020600020905b81548152906001019060200180831161065857829003601f168201915b5050505050815250508152602001906001019061052d565b505050509050919050565b82336001600160a01b038216146106e55760405162461bcd60e51b815260206004820152600c60248201526b155b985d5d1a1bdc9a5e995960a21b60448201526064015b60405180910390fd5b6001600160a01b03841660009081526020819052604090205460ff1661074d5760405162461bcd60e51b815260206004820152601f60248201527f414920696e74657276656e74696f6e73206e6f7420617574686f72697a65640060448201526064016106dc565b6001600160a01b0384166000908152600160208181526040808420815160608101835288815242818501529182018790528054938401815584529220825160039092020190819061079e9082610b7c565b5060208201516001820155604082015160028201906107bd9082610b7c565b505050836001600160a01b03167ff8b9fbd4e172bed85fc7674b9842fa0f024c1606637c75cad5c34051bebdd70d84846040516107fb929190610c3b565b60405180910390a250505050565b80356001600160a01b038116811461082057600080fd5b919050565b6000806040838503121561083857600080fd5b61084183610809565b946020939093013593505050565b6000815180845260005b8181101561087557602081850181015186830182015201610859565b506000602082860101526020601f19601f83011685010191505092915050565b6060815260006108a8606083018661084f565b84602084015282810360408401526108c0818561084f565b9695505050505050565b8035801515811461082057600080fd5b6000806000606084860312156108ef57600080fd5b6108f8846108ca565b9250610906602085016108ca565b9150610914604085016108ca565b90509250925092565b60006020828403121561092f57600080fd5b61093882610809565b9392505050565b6000602082016020835280845180835260408501915060408160051b86010192506020860160005b828110156109c957603f19878603018452815180516060875261098d606088018261084f565b9050602082015160208801526040820151915086810360408801526109b2818361084f565b965050506020938401939190910190600101610967565b50929695505050505050565b634e487b7160e01b600052604160045260246000fd5b600082601f8301126109fc57600080fd5b813567ffffffffffffffff811115610a1657610a166109d5565b604051601f8201601f19908116603f0116810167ffffffffffffffff81118282101715610a4557610a456109d5565b604052818152838201602001851015610a5d57600080fd5b816020850160208301376000918101602001919091529392505050565b600080600060608486031215610a8f57600080fd5b610a9884610809565b9250602084013567ffffffffffffffff811115610ab457600080fd5b610ac0868287016109eb565b925050604084013567ffffffffffffffff811115610add57600080fd5b610ae9868287016109eb565b9150509250925092565b600181811c90821680610b0757607f821691505b602082108103610b2757634e487b7160e01b600052602260045260246000fd5b50919050565b601f821115610b7757806000526020600020601f840160051c81016020851015610b545750805b601f840160051c820191505b81811015610b745760008155600101610b60565b50505b505050565b815167ffffffffffffffff811115610b9657610b966109d5565b610baa81610ba48454610af3565b84610b2d565b6020601f821160018114610bde5760008315610bc65750848201515b600019600385901b1c1916600184901b178455610b74565b600084815260208120601f198516915b82811015610c0e5787850151825560209485019460019092019101610bee565b5084821015610c2c5786840151600019600387901b60f8161c191681555b50505050600190811b01905550565b604081526000610c4e604083018561084f565b8281036020840152610c60818561084f565b9594505050505056fea2646970667358221220fb45e5a00ab064c85fc504313da5ed1b67e6294518628b06c433e81a5f2087de64736f6c634300081c0033",
  "linkReferences": {},
  "deployedLinkReferences": {}
}